:10000000C01D002039260000436600000D260000B8
:100010000D2600000D2600000D2600000000000047
:1000200000000000000000000000000009230000A4
:100030000D26000000000000B52200000D26000083
:10004000B9230000B9230000B9230000B923000040
:10005000B9230000B9230000B9230000B923000030
:10006000B9230000B9230000B9230000B923000020
:10007000B9230000B9230000B9230000B923000010
:10008000B9230000B9230000B9230000B923000000
:10009000B9230000B9230000B9230000B9230000F0
:1000A000B9230000B9230000B9230000B9230000E0
:1000B000B9230000B9230000B9230000B9230000D0
:1000C000B9230000B9230000B9230000B9230000C0
:1000D000B9230000B9230000B9230000B9230000B0
:1000E000B9230000B9230000B9230000B9230000A0
:1000F000B9230000B9230000B9230000B923000090
:1001000081F0004102E000BF83F0004330B54FEAC8
:1001100041044FEA430594EA050F08BF90EA020F35
:100120001FBF54EA000C55EA020C7FEA645C7FEAC8
:10013000655C00F0E2804FEA5454D4EB5555B8BFEB
:100140006D420CDD2C4480EA020281EA030382EA5C
:10015000000083EA010180EA020281EA0303362DEE
:1001600088BF30BD11F0004F4FEA01314FF4801CC1
:100170004CEA113102D0404261EB410113F0004FD3
:100180004FEA03334CEA133302D0524263EB43038A
:1001900094EA050F00F0A780A4F10104D5F1200E28
:1001A0000DDB02FA0EFC22FA05F2801841F1000183
:1001B00003FA0EF2801843FA05F359410EE0A5F157
:1001C00020050EF1200E012A03FA0EFC28BF4CF088
:1001D000020C43FA05F3C01851EBE37101F000453E
:1001E00007D54FF0000EDCF1000C7EEB00006EEB4B
:1001F0000101B1F5801F1BD3B1F5001F0CD34908D5
:100200005FEA30004FEA3C0C04F101044FEA44522B
:1002100012F5800F80F09A80BCF1004F08BF5FEAB2
:10022000500C50F1000041EB045141EA050130BD92
:100230005FEA4C0C404141EB0101013C28BFB1F5A4
:10024000801FE9D291F0000F04BF01460020B1FAEF
:1002500081F308BF2033A3F10B03B3F120020CDAC2
:100260000C3208DD02F1140CC2F10C0201FA0CF0A0
:1002700021FA02F10CE002F11402D8BFC2F1200C05
:1002800001FA02F120FA0CFCDCBF41EA0C019040BB
:10029000E41AA2BF01EB0451294330BD6FEA040404
:1002A0001F3C1CDA0C340EDC04F11404C4F12002EF
:1002B00020FA04F001FA02F340EA030021FA04F301
:1002C00045EA030130BDC4F10C04C4F1200220FA58
:1002D00002F001FA04F340EA0300294630BD21FA96
:1002E00004F0294630BD94F0000F83F4801306BF5C
:1002F00081F480110134013D4EE77FEA645C18BF50
:100300007FEA655C29D094EA050F08BF90EA020FE6
:1003100005D054EA000C04BF1946104630BD91EADE
:10032000030F1EBF0021002030BD5FEA545C05D1E1
:100330004000494128BF41F0004130BD14F5800420
:100340003CBF01F5801130BD01F0004545F0FE4194
:1003500041F470014FF0000030BD7FEA645C1ABFC9
:10036000194610467FEA655C1CBF0B46024650EA00
:10037000013406BF52EA033591EA030F41F400212C
:1003800030BD00BF90F0000F04BF0021704730B5B2
:100390004FF4806404F132044FF000054FF0000187
:1003A00050E700BF90F0000F04BF0021704730B548
:1003B0004FF4806404F1320410F0004548BF40421D
:1003C0004FF000013EE700BF42004FEAE2014FEA72
:1003D00031014FEA02701FBF12F07F4393F07F4F4D
:1003E00081F06051704732F07F4208BF704793F050
:1003F0007F4F04BF41F40021704730B54FF4607463
:1004000001F0004521F000411CE700BF50EA010265
:1004100008BF704730B54FF000050AE050EA01020E
:1004200008BF704730B511F0004502D5404261EB7E
:1004300041014FF4806404F132045FEA915C3FF4BF
:10044000D8AE4FF003025FEADC0C18BF03325FEA5C
:10045000DC0C18BF033202EBDC02C2F1200300FA0D
:1004600003FC20FA02F001FA03FE40EA0E0021FA32
:1004700002F11444BDE600BF80F0004002E000BF7E
:1004800081F0004142001FBF5FEA410392EA030F7F
:100490007FEA226C7FEA236C6AD04FEA1262D2EBC9
:1004A0001363C1BFD218414048404140B8BF5B42CE
:1004B000192B88BF704710F0004F40F4000020F067
:1004C0007F4018BF404211F0004F41F4000121F07D
:1004D0007F4118BF494292EA030F3FD0A2F10102C7
:1004E00041FA03FC10EB0C00C3F1200301FA03F105
:1004F00000F0004302D5494260EB4000B0F5000F28
:1005000013D3B0F1807F06D340084FEA310102F1E6
:100510000102FE2A51D2B1F1004F40EBC25008BF98
:1005200020F0010040EA03007047490040EB000062
:10053000013A28BFB0F5000FEDD2B0FA80FCACF163
:10054000080CB2EB0C0200FA0CF0AABF00EBC25090
:1005500052421843BCBFD0401843704792F0000F7E
:1005600081F4000106BF80F400000132013BB5E7D1
:100570004FEA41037FEA226C18BF7FEA236C21D047
:1005800092EA030F04D092F0000F08BF08467047AC
:1005900090EA010F1CBF0020704712F07F4F04D17A
:1005A000400028BF40F00040704712F100723CBF8D
:1005B00000F50000704700F0004343F0FE4040F4B7
:1005C000000070477FEA226216BF08467FEA236375
:1005D0000146420206BF5FEA412390EA010F40F460
:1005E000800070474FF0000304E000BF10F00043AC
:1005F00048BF40425FEA000C08BF704743F0964393
:1006000001464FF000001CE050EA010208BF7047AD
:100610004FF000030AE000BF50EA010208BF704734
:1006200011F0004302D5404261EB41015FEA010C49
:1006300002BF84460146002043F0B64308BFA3F141
:100640008053A3F50003BCFA8CF2083AA3EBC25323
:1006500010DB01FA02FC634400FA02FCC2F1200242
:10066000BCF1004F20FA02F243EB020008BF20F079
:100670000100704702F1200201FA02FCC2F12002DF
:1006800050EA4C0021FA02F243EB020008BF20EAD4
:10069000DC7070474FF0FF0C1CEAD0521EBF1CEA02
:1006A000D15392EA0C0F93EA0C0F6FD01A4480EAF0
:1006B000010C400218BF5FEA41211ED04FF00063D9
:1006C00043EA501043EA5111A0FB01310CF0004005
:1006D000B1F5000F3EBF490041EAD3715B0040EA2B
:1006E000010062F17F02FD2A1DD8B3F1004F40EBFB
:1006F000C25008BF20F00100704790F0000F0CF0CE
:10070000004C08BF49024CEA502040EA51207F3A91
:10071000C2BFD2F1FF0340EAC250704740F400006C
:100720004FF00003013A5DDC12F1190FDCBF00F05D
:1007300000407047C2F10002410021FA02F1C2F10B
:10074000200200FA02FC5FEA310040F1000053EAA7
:100750004C0308BF20EADC70704792F0000F00F0F5
:10076000004C02BF400010F4000F013AF9D040EAFB
:100770000C0093F0000F01F0004C02BF490011F48F
:10078000000F013BF9D041EA0C018FE70CEAD1538D
:1007900092EA0C0F18BF93EA0C0F0AD030F0004C0D
:1007A00018BF31F0004CD8D180EA010000F00040C1
:1007B000704790F0000F17BF90F0004F084691F07F
:1007C000000F91F0004F14D092EA0C0F01D14202B9
:1007D0000FD193EA0C0F03D14B0218BF084608D182
:1007E00080EA010000F0004040F0FE4040F40000CC
:1007F000704740F0FE4040F4400070474FF0FF0C5F
:100800001CEAD0521EBF1CEAD15392EA0C0F93EAA5
:100810000C0F69D0A2EB030280EA010C49024FEAF7
:10082000402037D04FF0805343EA111143EA1013B0
:100830000CF000408B4238BF5B0042F17D024FF468
:10084000000C8B4224BF5B1A40EA0C00B3EB510F43
:1008500024BFA3EB510340EA5C00B3EB910F24BF2C
:10086000A3EB910340EA9C00B3EBD10F24BFA3EBB1
:10087000D10340EADC001B0118BF5FEA1C1CE0D179
:10088000FD2A3FF650AF8B4240EBC25008BF20F02C
:10089000010070470CF0004C4CEA50207F32C2BF80
:1008A000D2F1FF0340EAC250704740F400004FF01D
:1008B0000003013A37E792F0000F00F0004C02BF4E
:1008C000400010F4000F013AF9D040EA0C0093F018
:1008D000000F01F0004C02BF490011F4000F013B72
:1008E000F9D041EA0C0195E70CEAD15392EA0C0FDA
:1008F00008D142027FF47DAF93EA0C0F7FF470AF12
:10090000084676E793EA0C0F04D14B023FF44CAF54
:1009100008466EE730F0004C18BF31F0004CCAD1E9
:1009200030F000427FF45CAF31F000437FF43CAF25
:100930005FE700BF53B94AB9002908BF00281CBFB0
:100940004FF0FF314FF0FF3000F00CB8ADF1080C64
:100950006DE904CE00F008F8DDF804E0DDE90223DB
:1009600004B07047704700BF2DE9F04786468C46BB
:100970000846089E154674461946002B40F0C28072
:100980008542B2FA82F245D94AB1C2F1200300FA97
:1009900002FC2EFA03F3954043EA0C0C94404FEA14
:1009A000154EA8B2BCFBFEF8230C0EFB18CC08FBBE
:1009B00000F943EA0C43994528D9EB1808F1FF37B1
:1009C00004D2994502D9A8F102072B44A3EB0903ED
:1009D000A4B2B3FBFEFC0EFB1C330CFB00F044EA9C
:1009E0000344A04214D92C190CF1FF3304D2A042C5
:1009F00002D9ACF102032C44241A43EA07401EB189
:100A0000D440002334607360BDE8F0874746DDE7DB
:100A10006346F1E792BB431B01214FEA154EAFB28B
:100A2000B3FBFEFC200C0EFB1C330CFB07F840EA6A
:100A30000343984562D9EB180CF1FF3004D2984576
:100A400002D9ACF102002B44A3EB0803A4B2B3FB20
:100A5000FEFC0EFB1C330CFB07F744EA0344A742E1
:100A60004ED92C190CF1FF3304D2A74202D9ACF1B4
:100A700002032C44E41B43EA0040C0E7C2F1200318
:100A800020FA03F1954090402EFA03F303434FEA16
:100A9000154EAFB2B1FBFEFC0EFB1C10190C0CFB8B
:100AA00007F841EA0041884504FA02F422D969189E
:100AB0000CF1FF3004D2884502D9ACF10200294480
:100AC000A1EB08019BB2B1FBFEFC0EFB1C110CFB61
:100AD00007F743EA01439F420ED9EB180CF1FF31AF
:100AE00004D29F4202D9ACF102012B44DB1B41EA44
:100AF000004192E76046E3E76146F7E76046A3E717
:100B00006346B7E7834206D916B9002108467BE75A
:100B1000C6E900E0F9E7B3FA83F78FB9834201D35E
:100B2000724508D8BEEB020460EB030301209C462B
:100B30001EB9002168E73846FAE7C6E9004CF8E735
:100B4000C7F1200CBB4022FA0CF41C432EFA0CF126
:100B500020FA0CF3B84001434FEA14490EFA07F5A6
:100B6000B3FBF9F81FFA84FE09FB18300B0C08FBE5
:100B70000EFA43EA00439A4502FA07F240D9E31815
:100B800008F1FF3004D29A4502D9A8F102002344AB
:100B9000A3EB0A0389B2B3FBF9F809FB183308FB8E
:100BA0000EFE41EA03418E452CD9611808F1FF334E
:100BB00004D28E4502D9A8F10203214443EA004041
:100BC000A0FB0298A1EB0E014145CE46434602D35D
:100BD00006D14D4504D2B9EB020E68EB040301388F
:100BE000002EA6D0B5EB0E0261EB030101FA0CFC5E
:100BF00022FA07F34CEA0303F940C6E9003198E70B
:100C00004046C5E74346D9E730B589B0CDE905236D
:100C10008DF8041001A902910024012107230391FA
:100C20008DF810408DF81C300448836802229D68BE
:100C300002A96B23A847204609B030BDD070000040
:100C400010B588B08DF810100121481EC0B298422E
:100C50000FD304ABCDE9013102238DF80C300948E4
:100C6000836801229C6801A96B23A047002008B07B
:100C700010BD01F120046C44105C04F8100C01312B
:100C8000C9B2E2E7D07000002DE9F0434A488BB0CA
:100C900005F04CFB494C204606F02AF818B92168AB
:100CA000474805F043FB474B0693474B0793474C98
:100CB000474D484E002140F2676004F079FC214620
:100CC00006A805F0ECF82178434805F02FFB012138
:100CD00006A805F0EBF83E4906A805F0FEF82978CD
:100CE000304605F023FB2C78002CF4D1012106A816
:100CF00005F0A7F8012106A805F060F8042106A870
:100D000005F0D4F9042106A805F06FFA214606A8DB
:100D100005F026F80C2106A805F039F8042106A8EC
:100D200005F02EF9012106A805F0E5F8032106A833
:100D300005F00FF9012106A805F0F4F8274E284C1C
:100D4000284F0DF1170106A805F04FF89DF8173050
:100D500063B306220021214805F09FFC1F4906A825
:100D600005F051F8B6F9000000F03EF82060B6F941
:100D7000020000F039F86060B6F9040000F034F8C1
:100D80000546A0602068FFF71FFB8046284689467D
:100D9000FFF71AFBCDE902016068FFF715FB424639
:100DA000CDE900014B46384601F0A4FD002140F298
:100DB000676004F0FDFBC4E744750000D0700000DC
:100DC00055750000410C0000090C0000E70B0020E5
:100DD000E60B00207F75000070750000E00B00201E
:100DE000000300209575000008B5FFF7FFFB0249DE
:100DF000FFF750FC08BD00BF23DB793D014B1B68AA
:100E0000184700BF00000020014B1860704700BF6A
:100E10000000002007B50B46002102460091034860
:100E200000F014F903B05DF804FB00BFFD0D0000F5
:100E30002DE9F047058B04462807904611D4022976
:100E400005F0070540F0CD80204605F086FA78B120
:100E50000138218B042811D8DFE800F0C3106D851C
:100E6000950001290CBF45F0100545F020052583AC
:100E700088F31188BFF36F8FBDE8F08701F0070A90
:100E8000AA4500F0A6800027B9463E46A368002B7D
:100E900000F0BD8041F00801218388F31188BFF381
:100EA0006F8FA168002900F0BB800D68002900F059
:100EB000B780D1F80480334652462046C047002D03
:100EC00076D02B6829461D46F0E701F007035A1F2C
:100ED000012A1BD8002221F00701062B276889B2BE
:100EE000C4E9002209D13B4603E0628B01326283F0
:100EF0001B68002BF9D141F002012183204605F047
:100F00002CFA00287BD041F0200177E0042B0AD195
:100F100021F0070189B22183204605F01EFA10B1A5
:100F200041F020012183218B01F0070AAA4550D00E
:100F30000027B946AAE7236921F0070141F006011D
:100F4000062DD3F8009021832DD1B9F1000F40D0A8
:100F500041F00801218388F31188BFF36F8F3A496C
:100F60002046C84729E021F00701236941F0040128
:100F700089B2042DD3F804902183E6D000273E46A1
:100F80004FF0040A82E721F00701236941F00501CF
:100F900089B2052DD3F808902183D6D000273E468C
:100FA0004FF0050A72E700273E464FF0060A6DE74C
:100FB0002B4687E7B9F1000FD1D14FF02003EFF3B3
:100FC000118883F31288BFF36F8F238B23F00803FC
:100FD0002383258BEA062ED525F01003238305F005
:100FE00007056669218B002EBFF66FAF00232768C7
:100FF000C4E9003321F0070141F001012183218B75
:1010000001F0070AAA454FF000097FF43FAF002F17
:101010009BD041F00801218388F31188BFF36F8FC3
:10102000002FC7D03D68394633465246204605F06A
:10103000C0F92F46F4E7AB067FF51AAF25F0200381
:10104000238305F00705FFE6DF6300002DE9F04F7D
:101050009FB08246039116461C460025307810B991
:10106000284600F08BBD731C2528069306D00399F3
:10107000D0470028C0F2828501352BE218220021DA
:1010800010A805F00AFB7378252B7DD00023701C77
:1010900098469E469C461F46014610F8012B2B2A77
:1010A00000F0A18000F29880202A00F09F80232A7F
:1010B00000F09F802BB19DF8483043F040038DF83D
:1010C0004830B8F1000F05D09DF8483043F02003B8
:1010D0008DF84830BEF1000F05D09DF8483043F040
:1010E00010038DF84830BCF1000F05D09DF8483052
:1010F00043F008038DF848302FB19DF8483043F095
:1011000004038DF848309DF8483003F0440044282B
:1011100003D16FF386138DF848309DF848302A2AA2
:1011200043F080038DF848307FD19DF8492042F08C
:1011300001024B1C8DF849201A782E2A9DF849206F
:101140000CBF0121002161F341028DF8492078D1C3
:101150005A782A2A6ED0013300224FF00A0C194621
:1011600011F8010BA0F13007092F40F2AF809DF874
:1011700048101492C1F3400040EAD2700A4660F36E
:1011800041028DF848205CE0B21C06928DF84B308D
:101190009DF84930DF0740F1548154F8042B049244
:1011A000002A08DA9DF8482042F004028DF8482011
:1011B000049A52420492580740F14B8154F8047B40
:1011C000002F80F24A819DF849306FF341038DF87A
:1011D00049304FF0FF3740E12D2A0DD0302A7FF4FF
:1011E00069AF012358E74FF0010C55E74FF0010EAE
:1011F00052E74FF001084FE701274DE70EFB02725F
:10120000303A0346184610F8017BA7F1300CBCF1C8
:10121000090FF3D999428FD09DF848101392D20F3D
:1012200062F341018DF8481086E70B4600224FF02B
:101230000A0EE7E79DF8492042F004028DF84920A4
:1012400002331A786C2A61D045D8682A4BD06A2AB2
:1012500065D04C2A6BD013F8012B0693782A8DF8B1
:101260004B2000F2AD806D2A6ED8692A00F2A8806A
:10127000572A00F28880412A04D0A2F14503022BAC
:1012800000F29E809DF84A3002F0DF020421A2F1B4
:10129000410861F30203D8F100029DF849108DF86E
:1012A0004A3042EB080262F3C7110A068DF8491072
:1012B000CBB200F1C48003F07802182A40F0AE806F
:1012C0006FF3C6038DF8493000239DE00CFB02024A
:1012D000303A0B4643E7742A25D07A2ABBD19DF8D1
:1012E000492006210CE05A78682A9DF8492006D149
:1012F000012161F3C6028DF849200233ABE70221D8
:1013000061F3C6028DF849200133A4E75A786C2AAC
:101310009DF8492001D10421EBE70321F0E79DF876
:1013200049200521ECE79DF849200721E8E7BDF8B1
:10133000482022F4F04222F0020242F4804242F0BD
:101340000202ADF84820DFE76E3AD3B201229A409C
:1013500040F282431A429DF8493038D112F0240FEE
:1013600060D1D1072CD59DF84A2003F07803A3F172
:10137000400C032161F30202DCF100038DF84A20E6
:1013800043EB0C0340E0A2F15801C9B2012000FA7E
:1013900001F111F4624F7FF475AF40F60103194279
:1013A0009DF8493019D111F4043F09D09DF84A2025
:1013B00060F3020203F07803402B8DF84A2083D1BA
:1013C0009DF8483043F001038DF848307CE79DF8E4
:1013D0004A20022161F30202ECE79DF84A10022044
:1013E00003F0780360F30201402B8DF84A1002BF2E
:1013F0009DF8481041F001018DF84810632A7FF4F0
:1014000063AF003B18BF01239DF84820C2F34001A1
:101410000B4363F341028DF84820B9E613F0380F0F
:10142000CED151E79DF84A20032113F0780F61F3E4
:1014300002028DF84A2014BF01230023E4E70123B0
:10144000E2E79DF94820002AB4BF139A4FF0FF321B
:10145000B0E699077FF5BDAE149F9DF849100023B3
:10146000CDE913339DF84A3003F00702042A07D16F
:101470008A0705D49DF94920002AACBF06270D270D
:1014800003F00703012BC1F3C30133D1CB1E042B9F
:1014900004D8DFE803F02146462121002368012912
:1014A0004FEAE372CDE910321CD19DF94030DA17D2
:1014B000CDE9103204349DF8483007939B0750D093
:1014C000069B03993246504605F095F80028C0F275
:1014D00055830544069EC1E554F8043BDA17CDE96F
:1014E0001032E8E70229E5D11AB243F3C033CDE95F
:1014F0001023DFE7022B24D1CB1E042B04D8DFE816
:1015000003F0181010181800012954F8043B4FF08C
:10151000000214D00229CDE91032CCD19BB2109335
:10152000C9E7073424F00704F4E80223CDE91023C7
:10153000C1E754F8043B109300231193BBE7DBB2DF
:10154000CDE7042B08D1073424F00704D4E90023A5
:101550000834CDE91023AEE7032BACD154F8043B9B
:10156000DDE79DF84BB0BBF1780FB3D8BBF1570F57
:1015700049D8BBF1250F00F09180BBF1240FA9D908
:10158000BBF1410F03D0ABF14502022AA2D8DDE93D
:101590001012002AC0F23681079B180700F135812E
:1015A000C3F300194FEA4919C2F30A50C2F31302F8
:1015B000002840F02D8151EA020614BF01260026C2
:1015C000D20242EA5152C902BBF1460F40EA010E73
:1015D00042EAE07C08BF4FF0660B5EEA0C0CCDE9F6
:1015E0000C1200F09981002E40F044810D9A42F0D7
:1015F0000042A0F2FE380D920020DDE90C120646F2
:101600004FF0050C50E1ABF15802202A3FF662AFD3
:1016100001A050F822F000BFA3170000D51400006D
:10162000D5140000D5140000D5140000D514000016
:10163000D5140000D5140000D51400008F1500004B
:10164000D5140000271700003B1700008F1500007D
:101650008F1500008F150000D51400003B17000007
:10166000D5140000D5140000D5140000D5140000D6
:10167000DD170000A3170000A9170000D514000013
:10168000D5140000A3160000D5140000A317000015
:10169000D5140000D5140000A31700000399584684
:1016A000E6E4002F109E3ADB3946304604F0E1FFB5
:1016B0003718002E3FF40EAF4FF000099DF84A3066
:1016C00013F01002059200F04E82023013F0400336
:1016D000DDF84C80089318BF149BCDF81C80404463
:1016E00018BFC018049B002B40F358829DF8482077
:1016F0001B1A04935307C2F3800B00F14F8250066C
:1017000040F13F82B9F1000F07D003994846D04716
:101710000028C0F233820135D946302232E2304609
:1017200004F0A0FFC4E7109B8DF85C304FF0000977
:101730000DF15D0717AE0120C0E7079B1E0758BFDC
:10174000C3F30019DDE9102354BF4FEA49194FF0E4
:101750002B09002B06DA524263EB4303CDE9102339
:101760004FF02D090DF175030093DDE9100117AB62
:1017700012AA04F0FAFE0646002F0CDB9DF8482062
:101780000DF175039B1B6FF386129F428DF8482065
:1017900001D9FB1A1393002E3FF49CAE0DF175078F
:1017A00056E04FF00009DDE71098002800F0D681E0
:1017B0000DF17503009312AA17AB002104F0D5FEBA
:1017C000BDF84A3003F0EF0343F4F04343F0100355
:1017D0000646ADF84A304FF00009CDE7109B0729C7
:1017E0003FF678AEDFE801F00C04060C08080C0C9C
:1017F0001D706FE61D806DE6EA17C3E9005269E6C9
:101800001D6067E64FF02D09CEE64FF02B09CBE6C1
:1018100040F2FF76B0422AD10A43ABF141031ED118
:101820001A2B35BF492369234E216E2134BF46222E
:1018300066228DF85C309DF848308DF85D106FF3AE
:1018400086138DF85E208DF848300DF15F0717AED6
:10185000B81BB9F1000F3FF431AF01302EE7192B5F
:101860008BBF6E234E23612141211A46E1E70026FA
:10187000A6E6013849185241002AFADACDE90C12DD
:10188000B4E6490841EAC2715208B2F1333F40461A
:1018900008F10108F5D20CFB02FEA1FB0C1200F1CD
:1018A00002087244013E012018F1020FE9DB08B181
:1018B000CDE90C12B8F1000FDDE90C212FDCC8F1E5
:1018C000040008F11C08A0F1200CC24021FA00F32A
:1018D00001FA08F80BF0DF0042EA080221FA0CFCDA
:1018E000472842EA0C0208933AD1F31C01DBB742C5
:1018F0002BDAABF10203002F5FFA83FB7FDD9DF84B
:101900004800800607F1FF3779D43B1E18BF01233A
:10191000059307F101082DE04FF000086CE6023254
:1019200041F100010CA8CDE90C2104F0EFFDDDE947
:101930000C2108F1FF38013692184941002908F1BD
:10194000FF38F9DACDE90C21B4E79DF84830990663
:10195000A7EB060751D43B1E18BF0123059304E0F3
:101960000023BBF1660F0593D3D117EB06084FF0A8
:10197000660B46D4B8F1100FA8BF4FF01008102026
:101980000B904FF000610020CDE90E01DDE90E0360
:10199000B8F1000F38D10899121841EB0301B1F1E9
:1019A000805F3FD2CDE90C21079BBBF1660F03F0AE
:1019B000200240F0B280002E3FDC30218DF85C1018
:1019C000002A63D1002F40F3A8812E228DF85D20DC
:1019D00086B17242BA42A8BF3A469DF84A101392A5
:1019E000002AA7EB0207D4BF0022012262F34511AF
:1019F0008DF84A100DF15E0837E00023AEE70023B2
:101A000086E74FF00008BAE7400840EAC3705B0879
:101A1000CDE90E030EA8099208F1FF3804F076FD17
:101A2000099AB3E7520842EAC1720CA84908CDE905
:101A30000C21013604F06AFDB6E70DF15C080B9944
:101A4000002909DD0BA90CA8079204F077FD013EDF
:101A500008F8010B079AF2D113969AB9002F40F3B8
:101A60005A812E2108F8011B0026002F17DD0B9A42
:101A7000002A14DD0BA90CA804F060FD013F08F852
:101A8000010BF2E72E2208F8012BEDE72E228DF84C
:101A90005D20002EAED0002F9BDC0DF15E08059B73
:101AA000002B4ED1149747460BF0DF02452A23D175
:101AB000002EBABF76422D232B23632EC8BF64218C
:101AC0007B70D1BFBA1CB6FBF1F3FA1C03F13000F6
:101AD000C8BF01FB13664FF00A01C8BFB87087F892
:101AE00000B0B6FBF1F3174603F1300001FB1363BE
:101AF000303307F8020B5370139B002B2CDC149B24
:101B0000002BD4BF002301239DF84A2063F38612E3
:101B100000238DF84A203B7099E60BA90CA8079288
:101B200004F00CFD079A8DF85C00302818BF06F110
:101B3000FF3612B9002F40F3F0802E228DF85D2081
:101B400058E7474608F1FF3817F8012C302AF8D03B
:101B50002E2A08BF4746A7E70123D5E7704F8146E5
:101B60007E1F0520AAE51A0748BF0130AEE51046E2
:101B700009920399D0470028099A05DA1FB0BDE8F9
:101B8000F08F2022DDF810B0594600290BF1FF3B01
:101B9000EDDC049BCDF810B02B445D1AB9F1000FB9
:101BA00005D003994846D0470028E7DB0135089B5C
:101BB000002B75D09DF94930002B28DBB3469BF8EC
:101BC0000000A0F13003092BD9460BF1010B3FD9DE
:101BD0009DF84A30AE1B99064E4407D44246002A6F
:101BE00008F1FF3839DC079B33449E1A99F800004E
:101BF0002E280AD10399D0470028BFDBB8F1000F87
:101C000006F101062FDC09F101094D4635E0B14628
:101C100099F800007028C84609F1010913D1AE1BDC
:101C2000149D46443544AB1B002B31DC03993B46E5
:101C30004246504604F0DFFC00289FDB3044049EFF
:101C40000546064462E00399D0470028E0DA95E7AC
:101C50000399D0470028B2DA90E703993020D047A3
:101C60000028BBDA8AE703993020D04708F1FF3813
:101C7000C2E70399D047002880DB2878A0F1300321
:101C8000092BA84605F10105F3D9A6EB0906C7E71C
:101C900003993020D0470028FFF670AF0136C2E725
:101CA0009DF84A30DA0601D41B0706D50399302087
:101CB000D0470028FFF662AF0135059B3BB1039981
:101CC0009DF84B00D0470028FFF658AF0135A844D7
:101CD00006E003993020D0470028FFF64FAF0135CA
:101CE000A8EB0503002BF4DC03993B463246504633
:101CF00004F081FC0028FFF641AF28449FE70399D8
:101D00002020D0470028FFF639AF0135731B002B88
:101D1000F5DCFFF7DFBB1646C1E60DF15D08BEE658
:101D2000CA75000008B54FF02002EFF3118382F36B
:101D30001288BFF36F8F00F021FE034804F0F6FA1B
:101D400000F030FAFCE700BFCB75000001F054BE94
:101D50002DE9F84305464FF02003EFF3118683F396
:101D60001288BFF36F8F0E4B0E4F1C68DFF8388060
:101D70004FF00C092CB986F31188BFF36F8FBDE8C3
:101D8000F883D4E90123002D18BF13462BB198F82E
:101D9000142009FB02F2B85C98472468EAE700BF08
:101DA0002403002018030020D009002070B5194B2F
:101DB0001C7DBFF35B8F04F01F0301229A40164B7A
:101DC000610903EB8103D04353E8001F01EA0005DA
:101DD00043E80056002EF7D1BFF35B8F0A4213D0C1
:101DE0000E4B0F4D8BB10C236343EA18E85C51781E
:101DF00004F06DFC0020FFF7ABFF0C235C432A19B5
:101E000000232B51C2E9013370BD83F31188BFF366
:101E10006F8FEFE7D00900202C030020CF66000071
:101E2000180300202DE9F041354B07461D7D4FF08A
:101E30002003EFF3118883F31288BFF36F8F0C2414
:101E4000304B314E6C431A19195D00294CD007CA2A
:101E500006EB040C8CE8070000221A5588F3118861
:101E6000BFF36F8F0C236B43F218F05C002839D05E
:101E70007B1C10D0D2F808C0244C254A4FF40040F7
:101E80000021ECFB004100232046FEF753FD012119
:101E9000381A05F084F803F0CDFA0120FFF758FF57
:101EA000BFF35B8F1B4B6A0903EB820305F01F0135
:101EB00001228A4053E8000F104343E80001002943
:101EC000F8D1BFF35B8F144B3BB10C2303FB05F040
:101ED0003318305C597804F0EEFBFFF767FF03F02E
:101EE000BDFA0120BDE8F0810146284600F016F851
:101EF0000028B3D007C8344484E80700AEE700BF29
:101F0000D00900200C030020180300203F420F00DE
:101F100040420F002C030020B76600002DE9F04F6F
:101F200085B00E4603A900F043F81E4B039DD3F87D
:101F300000A0DFF87480431E1BB203EB430304468A
:101F400005EB83054FF400474FF0000B24B9A14681
:101F5000484605B0BDE8F08F6868144AC446594643
:101F6000E0FB07C100236046FEF7E4FC0190A8688F
:101F70000E4AC4465946E0FB07C100236046FEF7FF
:101F8000D9FCBAF1FF3FA94601D0824505D9731C9F
:101F9000DED0019B1844B042DAD9013CA4B20C3D1A
:101FA000D4E700BF040000203F420F0040420F0072
:101FB00008B9024B0B600020704700BF0873000097
:101FC000014803F01DBD00BF0873000038B504468A
:101FD00018B90F4B0F485B6898476168B1F5683FC7
:101FE0000FD0B1F5680F0CD00B4DA94209D011F4F8
:101FF000686107D00948214604F0C8FE0023236029
:10200000656038BD2068142204F047FBF8E700BF84
:1020100018010020F77500002C5F5CA93008002033
:1020200008B520B34368B3F5683F10D101220368B7
:10203000BFF35B8F53E8001F002903D143E8002062
:102040000028F7D1BFF35B8F0DD1002008BD094AEE
:1020500093420AD000684FF0FF324FF0FF3302F096
:10206000E1FE0028F1D00448F0E70448EEE76FF401
:10207000E040EBE72C5F5CA9E98FFFFFEA8FFFFFF1
:1020800008B5D8B14368B3F5683F10D100220368A2
:10209000BFF35B8F53E8001F012903D143E8002001
:1020A0000028F7D1BFF35B8F0BD1002008BD074A92
:1020B000934208D0006802F02FFFF6E76FF4E0408B
:1020C000F4E70348F2E70348F0E700BF2C5F5CA9A0
:1020D000E98FFFFFEA8FFFFF10B5044618B91D4BCB
:1020E0001D485B6898476368B3F5683F2FD0B3F528
:1020F000680F2CD0194A934219D1236803BB1848A2
:102100004FF0FF324FF0FF33214602F0B3FD08B924
:1021100023681BB90F4B13485B689847206814224B
:10212000002104F0BAFA4FF46863636008E0B3F585
:10213000683F0DD83A2B03D040F6BA629342DED105
:10214000206804F061FE636843F03A03636010BDE9
:10215000054AF3E718010020F77500002C5F5CA921
:10216000300800201D7600003A00003A08B5064904
:1021700006484023142204F0FBFDBDE80840044952
:10218000044803F0AFBC00BF30030020300800203B
:102190001073000024730000014910220A60704788
:1021A00010ED00E072B6404080F31188BFF36F8FEE
:1021B000BFF34F8F30BF62B6BFF36F8F704700BF62
:1021C00072B6494081F31188BFF34F8F20BF80F36F
:1021D000118862B6704700BF40B2002807DB044A8E
:1021E0004109012300F01F00834042F8213070476D
:1021F00000E100E0054B420900F01F0053F82220E7
:10220000012303FA00F01040704700BF00E100E036
:1022100040B20028A8BF00F1604001F10101B8BF41
:10222000064B4FEA4111ACBF00F5614000F00F00D2
:10223000C9B2B4BF195480F80013704714ED00E020
:1022400030BFFFF7FDBF00BF0B4A08B50B4B22F0B4
:102250007F029A60BFF34F8FBFF36F8FD3F8882050
:1022600022F47002C3F8882002F040FC03F020FA48
:1022700000F0D6F902F07EFC0000000000ED00E066
:10228000094A0A49936809689967094958674B6878
:1022900043F080534B60002383F31188BFF36F8FAB
:1022A0009368986F704700BFD0090020A0740000A9
:1022B00000ED00E012498A684FF030001044EFF35F
:1022C000098C80E8F01F202080F31288BFF36F8F05
:1022D0000C4F4FF00066CA698A603E60506F002361
:1022E000536780F3118804B5104600F035FABDE855
:1022F000044002F1300090E8F01F8CF30988704729
:10230000D009002004ED00E01EF0040F0CBFEFF335
:102310000880EFF30980816911F8021C0229FFD0BF
:1023200001B504F086F901BD42F8203C009B42F85B
:102330001C3C0A49019B42F8183C029B42F8143CA1
:1023400021F001014FF0807342F8043C42F8081C70
:102350000023203A02654367704700BF47630000CF
:10236000094A0346906870B113F1160F406E05D00C
:10237000A0F140029A4205D8834203D2814228BF8D
:102380000020704700207047D009002008B5094B95
:1023900098600D46144600F0DFF9204685F3098861
:1023A000002163B681F31188BFF36F8F00220023F1
:1023B00003F0C9FFD009002001B572B60B4A90693D
:1023C00000281EBF0021916104F00FFD62B6EFF3FB
:1023D0000580A0F110004FEAC0000549014409C979
:1023E0009847BDE80140034908470000D009002094
:1023F000E8700000F9230000044B9968D86988420E
:1024000003D003494FF080520A607047D009002082
:1024100004ED00E070B51D4B15469A6A9A6A9A6AF7
:102420009207064622D5586B9A6A14061ED519B132
:102430009A6A22F080029A629A6A9A6A9A6A134C9D
:1024400012F0100F15D19B6A990712D40020A36ACD
:102450000E4A9B0642BF636A23F400536362936A89
:1024600043F0FF03936200232B7070BD6FF01500E3
:10247000E2E763681A05E9D53146FFF771FF0028E6
:10248000E4D080F309880220E1E700BF00ED00E01E
:102490000D4B9A6A9A6A9A6A920508D59A6B9A6A5B
:1024A000120404D518B19A6A22F400429A629A6A18
:1024B0009A6AD205044A58BF9B6A936A002043F483
:1024C0007F4393620870704700ED00E070B54A4B9F
:1024D0005B688AB00546C3F30803002686F31188BB
:1024E000BFF36F8F02F07F40B0F17F4F11D102F048
:1024F0000C0008280DD010074CBF0D460126002205
:10250000033B8DF80720032B4DD8DFE803F004656B
:10251000696D3546F3E7384BDA6A910743D4DA6AD6
:10252000002A40DBDA6A52003DD55A69A96942F4B3
:1025300080725A61BFF34F8FBFF36F8F5A6931F8C2
:10254000021C22F480725A61BFF34F8FBFF36F8F6A
:102550004DF60272914209D09A6AD2B242B10DF19F
:10256000070201212846FFF755FF0AE02C681BE00F
:102570009A6A12F47F4F06D00DF107010120FFF790
:1025800087FF044610E09A6AB2F5803F0BD39A6A3F
:102590009A6A9A6A9A6A9A6A9A6A9A6A6FEA024286
:1025A0006FEA12429A6200249DF8073093B9202204
:1025B000294602A804F066F8099BBEB1C3F30802DD
:1025C00022B96FEA53236FEA4323099302A92046F5
:1025D00004F02DF80AB070BD0DF107020021C1E72B
:1025E0000DF107010020CAE7034BD0E723F4FF7386
:1025F00023F00103E9E700BF00ED00E0024A536960
:1026000043F010035361704700ED00E0EFF30880E2
:10261000EFF3098101B57246FFF758FF01BD00BF16
:10262000044800232021C2180133302B82F8001304
:10263000F9D1704700E100E0002080F31488BFF377
:102640006F8FFFF783FB00200D490860BFF34F8FAA
:102650000C4880F3088800F02BF8202080F31188C4
:1026600009484FF40461401880F30988EFF314809F
:102670000221084380F31488BFF36F8FFFF7E4FD56
:1026800094ED00E0C01D0020001000200749D1F8A3
:1026900090200023C2F307221846934200DB7047C4
:1026A000C1F89830C1F8A0000133F6E700ED00E072
:1026B00008B572B6002383F31388FFF7E7FF144BC6
:1026C0004FF0FF32C3F88020C3F88420C3F888207D
:1026D000C3F88C20C3F89020C3F89420C3F8982046
:1026E000C3F89C20C3F88021C3F88421C3F8882153
:1026F000C3F88C21C3F89021C3F89421C3F8982122
:10270000C3F89C2162B6BFF34F8FBFF36F8F08BD34
:1027100000E100E0084B9B6883420BD1EFF3058397
:1027200043B1064B5A6842F080525A605A6A22F40A
:1027300000425A6202F05CBFD009002000ED00E0C8
:10274000024B034A0348012100F070B80000042046
:102750000000002034730000426E054B403A1A60BE
:10276000044A4021C3E901121846012100F068B86B
:102770004C08002000000B15F0B5204E00258D42BE
:1027800039DA446874B353B104F1FF3C14EA0C0F16
:102790002FD11F2C2DD907681CEA070F29D1202C17
:1027A0000768D0F808C05FFA82FE1ED9B4F1004F66
:1027B0001DD8013CB4FA84F4C4F11F046400BEF1D6
:1027C000070F4CEA040C14D827F01F04144344F0FC
:1027D0001004C6F89820C6F89C404CF00104C6F8D6
:1027E000A040013201350C30C9E70824E7E73E2458
:1027F000E5E76FF015021046F0BD00BF00ED00E008
:10280000044B0522C3F89420BFF34F8FBFF36F8FA3
:10281000704700BF00ED00E0BFF35F8F024B002266
:10282000C3F89420704700BF00ED00E010B5034CE2
:1028300001232278FFF7A0FF207010BDE80B0020D5
:1028400008B5094A00231278FFF796FF10F1160F1A
:1028500002D0064A072800DD08BDC2F89800C2F879
:10286000A0300130F6E700BFE80B002000ED00E0EB
:1028700014490868082810B521D8FFF7CDFF124C7D
:1028800049680022904201F10C0105D10F4B1870EC
:10289000FFF7B6FF002010BDC4F8982051F80C3C9B
:1028A00023F01F03134343F01003C4F89C3051F886
:1028B000043C43F00103C4F8A0300132E2E74FF0DA
:1028C000FF30E8E74073000000ED00E0E80B002077
:1028D000014B1860704700BF280000200239012911
:1028E00002D8034B1B6818474FF0FF30704700BFFA
:1028F000280000200FB41FB506AB002153F8042BAD
:102900000548009102210393FEF7A0FB05B05DF896
:1029100004EB04B0704700BFB366000010B54FF081
:102920002003EFF3118083F31288BFF36F8F114AF6
:102930000123C2F840354FF080424FF08051C2F879
:102940007835D1F83041082C08D1D1F83411052957
:1029500004D8094C615C09B1C2F838364FF08043A5
:102960000122C3F8802580F31188BFF36F8F002008
:1029700010BD00BF00E001405D7600004FF08043D5
:10298000C0B2C3F81C05BFF34F8F0549054BCA6899
:1029900002F4E0621343CB60BFF34F8F00BFFDE74B
:1029A00000ED00E00400FA0520B1034B800143F084
:1029B00001031847704700BF00730000084B70B553
:1029C000C31A0D4607499B10044659430648402246
:1029D00003F09FFE2B4601462046BDE87040184795
:1029E0006C080020B76DDBB65870000073B50C4C56
:1029F0000C4A4023041B00930D460B460A49A410C1
:102A000061430646094803F0B1FE011E05DA30466F
:102A10002B4602B0BDE87040184702B070BD00BF41
:102A20006C080020D9670000B76DDBB65870000055
:102A3000002270B5012104461046FFF7E9FB0F485C
:102A400001F062F90E4B984215D104F001F82669A5
:102A50000C49304603F0D1FC00280BDB012535641E
:102A60002469084904F11C0003F0C7FC002801DBBD
:102A7000E564002070BD6FF00400FBE7BD2A000094
:102A80000000AD0B6073000070B501460C230948CF
:102A90004B43C418D4E90E5600224033A2631844B5
:102AA00003F024FE2DB132462B460348BDE87040AA
:102AB000184770BD6C0800205870000010B1012844
:102AC00004D07047034B1B6C5B0701D1FFF7DCBFE1
:102AD000704700BF6C08002008B54FF02003EFF3EB
:102AE000118183F31288BFF36F8F124A136843F08A
:102AF00002001060DA0708D481F31188BFF36F8FEA
:102B00000120BDE8084003F0B0BF4FF08043D3F888
:102B10000C24D3F80C34D307EED5074803F0E6FDB8
:102B200081F31188BFF36F8F0020BDE80840FFF7E5
:102B3000ABBF00BFBC080020AC0800201FB50022BE
:102B40000123CDE90223094ACDF800D06B46CDF828
:102B500004D003F03AFE002805DB4FF48042002346
:102B6000684602F035FA05B05DF804FBF76700002F
:102B700010B54FF02003EFF3118483F31288BFF3F5
:102B80006F8F074A136823F00201DB07116002D43C
:102B9000012003F0A6FF84F31188BFF36F8F10BDEF
:102BA000BC0800202DE9F0413849BFF35B8F074690
:102BB000012251E8003F41E800200028F9D1BFF38D
:102BC0005B8F33B9324933484B60CB608A6003F086
:102BD00027FC7B1E012B2BD8012F07D14FF0804300
:102BE000D3F81C3403F00303012B21D004F0F7F8D1
:102BF0000546F8B9284B1B78E3B14FF08043022219
:102C0000C3F808230646DFF894804FF08044D4F8D8
:102C10001834D4F81824D20316D503F00303012B7B
:102C200001D0012F10D15DB386F31188BFF36F8FF0
:102C3000BDE8F0814FF02003EFF3118683F3128893
:102C4000BFF36F8F0125DEE7ADB13046FFF7B8FA6D
:102C5000D4F81835002BDAD1D4F80421002AD6D0C4
:102C6000C4F80431D4F804310123C4F81835C8F885
:102C70008031A360CBE70021212002F099FCE7E737
:102C80004FF080430222C3F80423D1E768080020F4
:102C90005808002088080020FD0F002000E100E017
:102CA00008B5074804F024F838B10648FFF710FECD
:102CB0000448FEF7A9F8002008BD6FF01200FBE7FA
:102CC000B8700000C92C00000A2838B5074D04462A
:102CD00004D1AB680D215B6828469847AB68034870
:102CE0005B68E1B29847204638BD00BFB87000006D
:102CF00030B54068057B01F01F04B2F5001F85B0B8
:102D000044EA451405D1204601F080FA002005B0C0
:102D100030BD0025B2F5800FCDE9025514D1B3F1D5
:102D2000007F0CBF042305238DF8083000231946CB
:102D300002AA204601F0A8F81F4B984239D1012180
:102D4000204601F01BFAE1E7B3F1C06F26D0B3F1E2
:102D5000007F14BF012302238DF808308368CB4025
:102D6000D907E3D4B2F1A07FE0D16209012A04F0CF
:102D70001F03124A03F5E07318BF4FF0A04252F848
:102D80002330DB07D2D40DF107052946204601F098
:102D9000A1F90B4B984203D00395C7E70323DBE768
:102DA000284601F0E5F9044B9842F5D06FF00B008E
:102DB000ADE76FF01500AAE70000AD0B000300506F
:102DC0000400AD0B10B501F0C3F9044668B901F079
:102DD00097F9084B98420AD10748214601F074F947
:102DE000224605210620FFF713FA002010BD6FF0E0
:102DF0000400FBE70000AD0BFD2D0000420970B59B
:102E0000034602D0012A17D070BD0D4E32695168B9
:102E10000029F9D003F01F0301250C689D4000290B
:102E2000F2D08A682A4002D04B68304698472CB1CD
:102E3000236821461C46F2E7024EE7E72346F8E7FF
:102E400088700000707000002DE9FF4147683B7BEF
:102E500001F01F0545EA43150E4628460DF1030112
:102E6000144601F037F914F4403F80460BD1284650
:102E700001F0F4F93D4B984503D19DF8030001F0B2
:102E800071F900200CE00023194602AA2846CDE97A
:102E9000023300F0F9FF354B984204D06FF0150073
:102EA00004B0BDE8F081804503D19DF8030001F036
:102EB00059F9A3034BD540F206332340B3F5837F82
:102EC00019D00CD8062B17D004D8ABB1022BE5D102
:102ED000042311E0B3F5807FE0D101230CE040F240
:102EE0000222934227D0B3F5407F26D0B3F5007F6E
:102EF000D4D1022300E007238DF8043084F480331A
:102F0000C3F30043E0068DF8053054BFC4F340130B
:102F1000032321038DF8063011D57A680123B340CD
:102F2000C2F80835002201A9284601F05BF80F4BD2
:102F30009842A6D0B2E70523DEE70323DCE762036D
:102F400041BF01237A68B340C2F80C35EAE7E306D3
:102F50004FF0000354BFC4F3401403241A4601A9E0
:102F600028468DF8044000F08FFFE0E70000AD0B2D
:102F700008B543681B68D3F80805D3F80C1501F0B1
:102F8000DFFC034B984214BF6FF00F00002008BD18
:102F90000000AD0B37B50446002201210320FFF7E6
:102FA00037F963689D6901AA0021284603F02BFDCB
:102FB000002814DB019B2A681979186800F048FC86
:102FC00000280CDB60682369064A00F1080101F063
:102FD00041FB054B984214BF6FF00F00002003B077
:102FE00030BD00BFED2F00000000AD0B0378012BBA
:102FF00008D0022B08D04BB9054B0B6201F1100031
:1030000001F0C6BF034BF8E7034BF6E7034BF4E7C9
:103010000000AD0B0100AE0B0200AE0B0100AD0BCA
:103020002DE9F04F8BB005460C469046019347685A
:1030300006694FF0FF324FF0FF33304601F0C8FF12
:1030400006F1100A00220023504601F0C1FF384665
:1030500001F062FBDFF8C0B04FF00009C14501D3B9
:1030600000242EE0237A039313F008014DD112229D
:103070000DF11600029103F010FB039B60680199AB
:10308000069003F0010220688DF8151013F0020F6E
:1030900002998DF8142008901DD108F1FF334B459B
:1030A00002D9237D5B0718D57ABB202205A93846B3
:1030B00001F05EFB584512D0184B984228D06FF0B3
:1030C0000404384601F038FB304601F061FF204629
:1030D0000BB0BDE8F08F0A46E8E74022E6E74FF480
:1030E00080420023504601F073FF30B1384601F0B2
:1030F00023FB2846FFF73CFFE1E7336A5B4504F119
:103100000C04DCD109F10109A8E76FF08504D8E7C8
:103110006FF00F04D5E700BF0000AD0B0B00AD0B47
:10312000F0B54B79012B26D0032B21D110258B79BB
:10313000032B1DD1CE790EB1012E19D10A7912B10E
:10314000022A15D10E220B684468B3F5164F276882
:1031500067D02DD8B3F5165F66D016D8B3F5966F45
:1031600064D00AD8B3F5967F63D0B3F5167F63D0E9
:103170006FF0850054E00025D9E7B3F5166F5ED0F7
:10318000B3F5965FF4D1384B3CE0B3F5E14F59D03D
:1031900007D8B3F5615F57D0B3F5964FE8D1334BFD
:1031A00030E047F61224A342E2D14FF4000329E0B5
:1031B000B3F5613F4AD013D8B3F5963F49D009D84B
:1031C0004DF6C024A34246D0B3F5614FD0D14FF4A1
:1031D0006B0317E0B3F5E13FCAD14FF0EB7311E099
:1031E000B3F5612F3AD008D8214CA34239D0B3F5BA
:1031F000E12FBDD14FF0E86304E01E4CA342B7D1EC
:103200004FF080530469C7F82435436835431B6881
:103210002A43C3F86C2503C9231D83E8030000205B
:10322000F0BD4FF41D03EDE7134BEBE74FF49E2386
:10323000E8E74FF4A033E5E74FF41C33E2E74FF43F
:103240001D23DFE70D4BDDE70D4BDBE74FF06C7324
:10325000D8E70C4BD6E74FF46503D3E74FF0706324
:10326000D0E74FF08063CDE700B0130000A04E0020
:1032700090D0030040420F000050270000C07500AE
:1032800000F03A0000903A012DE9F74347680669DB
:103290003C680021C4F800153060D7F80C908046D7
:1032A00001AA484603F0AFFB051E54DB019BD9F889
:1032B00000201979186800F0CBFA051E4BDB311D90
:1032C0004046FFF72DFF0546002844D17B6899074B
:1032D0001AD506F1180001F0C3F8224B98423ED1EE
:1032E000337EDB0003F1804303F5F83304F10C0275
:1032F00004F59071C3F81015C3F81425327E01232C
:103300009340194AC2F804350823C4F800353B7AC3
:1033100053B9C4F81031D4F810317369C4F8343596
:103320000123C4F8383523607B689A075CBF4FF4EB
:103330008073C4F804337B68DB0644BF4FF480031A
:10334000C4F804333369C4F844350023C4F848355D
:103350000123A360E360284603B0BDE8F0836FF06B
:103360000405F8E70000AD0B00F00140F8B5044695
:1033700007690D4603F033FDB0B92E4B1B789BB1A6
:103380006426606803F0CBFA00BB012003F05EFB0B
:10339000013EF6D10021212002F00AF9F0E786F380
:1033A0001188BFF36F8FF5E74FF02003EFF311861D
:1033B00083F31288BFF36F8F6068314603F0AFFA72
:1033C00090B986F31188BFF36F8FEDE74FF02003BC
:1033D000EFF3118683F31288BFF36F8F6068314675
:1033E00003F09DFA0028DAD03B691D7062683869E5
:1033F0001368C3F844050120C3F848050020C3F84A
:103400002001D3F82051C3F858015268D3F858016D
:10341000D20608D5626812680820C2F800054FF489
:103420008002C3F8042301229A6081F31188BFF35C
:103430006F8FF8BDFD0F002070B5012383400E4A49
:10344000BFF35B8FDC4352E8001F01EA040542E84A
:103450000056002EF7D1BFF35B8F4FF480328240CD
:103460000648C0F80823BFF35F8FBFF36F8F0B428E
:1034700014BF0120002070BDDC08002000100140B6
:1034800070B40E49D1E90034D01AC31844F10004D5
:1034900022F07F46C1E90034A6F50013B3F5400FD2
:1034A00009D2074B1B681A0A1B069C19054B42F1EF
:1034B0000005C3E9004570BC02F0E0B9E801002056
:1034C000E0080020F001002011B3BFF35B8F01235F
:1034D000104A834052E800CF4CEA030C42E800C196
:1034E0000029F7D1BFF35B8F0B4A4FF48033834041
:1034F000C2F80433094BBFF35B8F1B68BFF35B8FCC
:10350000C340DB0742BF064B4FF40032C3F8002133
:10351000704700BFDC08002000100140D8080020E0
:1035200000E100E00D4B1868010A0006BFF35F8F51
:103530000B4BD3F80435181841F10001B3F5801F87
:103540000AD2084BD3E90023904271EB030303D264
:1035500010F1807041F10001704700BFE0080020C9
:1035600000100140F00100202DE9F74F16461F46DC
:103570000446FFF761FF0090FFF7D4FFB04271EB04
:10358000070351D23A4B301A67EB0101984271F1AF
:1035900000016AD2374B03EB0413D3E902239F42A5
:1035A00008BF96424ED034494FF4803904F150059B
:1035B00009FA04F9AD00C1F848932046ADB203F012
:1035C00016FA26F07F4B05F1804504F5A8732B4AC7
:1035D000019305F58835DC464FF0030A019B2CF07A
:1035E0007F4041F82300C1F84493D1F804856FF07F
:1035F0000200A0EB0800604420F07F40904221D9F7
:10360000286860B1D1F80485A8EB0B0020F07F405A
:10361000B0F5000F16D9204603F0E9F9174A0AEB76
:10362000080C0AF1010AD9E70123154ABFF35B8FA1
:10363000A34052E8000F184342E800010029F8D1E6
:10364000BFF35B8F0B490C98230101EB0412C2E915
:103650000267C8500D9B5360002520460099FFF774
:1036600033FF284603B0BDE8F08F6FF01505F4E78F
:1036700001008000D801002000100140FDFF7F0004
:10368000D808002073B5194B194D00244FF0FF30B6
:103690004FF0FF31C5F80845C3E902014FF480330C
:1036A000C5F80433134B02264FF400320121C5F84C
:1036B00004631120C3F880212246FEF7A9FD1120E2
:1036C000FEF78AFD0C4A0123AB602B6013600B4BA5
:1036D0000B4A0093019400232046FFF745FF304634
:1036E000FFF760FA204602B070BD00BFD80100208D
:1036F0000010014000E100E0DC08002081340000FF
:10370000FFFF7F002DE9F7432F4CD4F804339907CE
:103710000BD5D4F8043143B12C4A0023C4F804314A
:10372000D4F80431136801331360D4F80433DA0396
:103730002AD5BFF35B8F264B53E8002F22F00101FF
:1037400043E800100028F7D1BFF35B8FD30702D402
:10375000D4F84031C3B10025C4F84051D4F8403109
:10376000FFF7E0FE4FF02003EFF3118283F312889E
:10377000BFF36F8F174BD3E90267B042B94106D24E
:1037800082F31188BFF36F8F03B0BDE8F0834FF071
:10379000FF384FF0FF39C3E90289D3E900101D60FB
:1037A0004FF48033C4F84833C4F84051D4F8403162
:1037B00082F31188BFF36F8F0029E5D00090324665
:1037C0003B4628468847DFE700100140E00800201C
:1037D000D8080020D8010020431C13B522D00128AE
:1037E00022DD124A124B9042D4BF04461C46FFF71A
:1037F00099FE104B0E49D3E90023801AB0F5000F53
:1038000028BF002404448C4228BF0C46A2180A4951
:1038100000914FF00000019043F10003FFF7A4FE78
:1038200002B010BD024CE2E70124E0E7FEFF7F009A
:10383000FFFF7F00E80100208134000008B5FFF79A
:1038400071FE024B1B68C01A08BD00BFE8010020D2
:103850002DE9F0415A4E00EB81010127814202D14E
:103860000020BDE8F081046804F07F03C4F3432521
:103870007F2B4FEA144408BF4FF0FF33222C00F295
:103880009B80DFE804F0122429442C404499999944
:10389000994770999999999999999999737B7E818A
:1038A000999999848A8D90939600C2F80C354FEAC5
:1038B000531CBCF1010F03F01F0414BF4FF0A04CC8
:1038C000B44607FA04F4CCF80845012402E0C2F833
:1038D00014350024A64624E0C2F80835E7E7C2F80C
:1038E000083500244FEA531EBEF1010F14BF4FF0FC
:1038F000A04EB64603F01F0C07FA0CFCCEF80CC520
:103900004FF0010E0DE0C2F80C350124EAE7C2F8D1
:103910001035DEE7C2F80835002DDAD10024A646BE
:10392000062550F804CB0CF40058B8F1000F4FEA0C
:103930000525CCF3C11803F01F0C4FEA53131CBF2D
:1039400001244FF0000E45EA8805012B0CBF3346D9
:103950004FF0A04345EA0E050CF5E07C45EA44052E
:1039600043F82C507AE7C2F80C35D5E7C2F8603539
:103970000468C4F38034002CC7D098E7C2F86435DB
:10398000F6E7C2F86835F3E7C2F86C35F0E7C2F83D
:10399000243501244FF0000EC3E7C2F8283586E72E
:1039A000C2F83035F5E7C2F83435F2E7C2F83835F9
:1039B000EFE7C2F83C35ECE76FF0850051E700BF58
:1039C000000300504FF08053D3F83021082A06D16D
:1039D000D3F83431052B02D8024AD05C704700205E
:1039E000704700BFFC760000024AD2F80034002B7A
:1039F000FBD0704700E0014010B54FF08053D3F882
:103A00003021082A4ED14FF080420021C2F80C111B
:103A1000C2F81011C2F8381502F54042D3F8041468
:103A2000C2F82015D3F80814C2F82415D3F80C14E2
:103A3000C2F82815D3F81014C2F82C15D3F81414B2
:103A4000C2F83015D3F81814C2F83415D3F81C1482
:103A5000C2F84015D3F82014C2F84415D3F8241442
:103A6000C2F84815D3F82814C2F84C15D3F82C1412
:103A7000C2F85015D3F83014C2F85415D3F83414E2
:103A8000C2F86015D3F83814C2F86415D3F83C14A2
:103A9000C2F86815D3F84014C2F86C15D3F8443452
:103AA000C2F87035FFF78EFF18B13B4B3B4AC3F8A5
:103AB0008C26FFF787FF18B1394BFB22C3F8182576
:103AC000FFF780FF70B14FF080414FF08053D1F885
:103AD000E42ED3F8583222F00F0203F00F03134301
:103AE000C1F8E43EFFF76EFF20B12E4B4FF4007299
:103AF000C3F840264FF08053D3F83031082B1AD149
:103B00004FF08043D3F80024D20744BF6FF0010286
:103B1000C3F800244FF08053D3F83431052B02D87A
:103B2000214AD35C3BB14FF01023D3F808224FF069
:103B30008043C3F858254FF01023D3F80022002A01
:103B400003DBD3F80432002B22DA184901234FF0AB
:103B50001020C1F804351224FFF746FFC0F80042D8
:103B6000FFF742FFC0F80442FFF73EFF0023C1F811
:103B70000435FFF739FFBFF34F8F0D490D4BCA686E
:103B800002F4E0621343CB60BFF34F8F00BFFDE749
:103B9000094B0A4A1A6010BD0050004048810300DA
:103BA00000F0004000900240F676000000E0014086
:103BB00000ED00E00400FA058C0000200090D00326
:103BC00070B501250268BFF35B8FB2FA82F3C3F1CF
:103BD0001F03DBB205FA03F422EA040450E8006F85
:103BE000964204D140E8004CBCF1000FF6D1BFF37F
:103BF0005B8FE7D101480B7070BD00BF0000AD0BBB
:103C000010B50368CB40DB0714D401238B40026856
:103C1000BFF35B8F43EA020150E8004F944204D1A6
:103C200040E8001CBCF1000FF6D1BFF35B8FEED172
:103C3000014810BD0148FCE70000AD0B0400AD0BCE
:103C4000F7B5044618B1012822D003B0F0BD4FF0FB
:103C500080430222C3F80823C3F80401D3F80421E7
:103C60000122DA60074601238DF8073042F2107511
:103C70004FF08046CCB1012CE7D1C7B3D6F80C3455
:103C800003F001033B70D6F80C34DA0321D516E0BB
:103C90004FF080430022C3F80803C3F80021D3F893
:103CA000002158600DF10707DDE7B7B1D6F81834E9
:103CB00003F003033B60D6F81834D803C5D59DF84C
:103CC0000700012803D102F0C1FE013DD2D1012C31
:103CD000BBD10C4B00225A71B7E7D6F81834D90380
:103CE000B3D5012002F0B2FE013DF6D1ADE7D6F822
:103CF0000C34DB03EDD5012002F0A8FE013DF6D126
:103D0000E7E700BFE4080020044B1A7922B901223A
:103D100018609A800248704702487047E408002003
:103D20000000AD0B0C00AD0B10B54FF08043D3F885
:103D300000216AB10022C3F80021D3F8002101223A
:103D4000C3F80823114B587910B95A711B6898476A
:103D50004FF08043D3F8042172B10022C3F804214C
:103D6000D3F80421D3F81824D3F81814920704D1F7
:103D70000122C3F818259A6010BD0222C3F8082357
:103D8000024BBDE810401B6801201847E4080020E2
:103D9000036803F01F025B09012B0260024818BF91
:103DA0004FF0A040704700BF00030050034B0830A5
:103DB00033F81000C0F34010704700BF900000209F
:103DC00070B500F108030C4C34F81330DA050546E1
:103DD0000E4607D5C3F3432304EBC30254F8333034
:103DE00052689847A3682BB1E26831462846BDE87F
:103DF0007040184770BD00BF9000002010B4124AF8
:103E0000083032F81030D9051BD5C3F3432123F411
:103E1000F85322F8103002F10E04002034F8023F6B
:103E200013F4807F03D0C3F34323994209D00130B8
:103E30003028F3D1002342F83130044810BCFFF79A
:103E4000DFBE10BC704700BF9000002004010020BE
:103E500038B50246FFF7AAFF094C02F1080540B148
:103E600034F8153007495B0B03F5A273002041F8C5
:103E700023001046FFF7C2FF002324F8153038BD99
:103E800090000020006000402DE9FF4104461646E6
:103E90001D4601B34E4F00F1080837F818309B0754
:103EA00002D5FFF783FF10BB0023CDE900338DF867
:103EB0000E308DF80F300DF10F020B4620460DF13C
:103EC0000E0102F010FE37F8183023F0020343F021
:103ED000010327F8183046B33D4B96F800C07268CE
:103EE00004F1080733F81710880702D5AAB139483A
:103EF0001DE021F02001C904C90C23F8171062B19C
:103F0000BCF1030FF3D872681678BCF1000F11D121
:103F1000314A06F5A27642F826C033F8172022F07F
:103F20001C0242EA8C0223F8172045BB2B4804B040
:103F3000BDE8F081B20002F1804202F5C04241EAE0
:103F40004631D2F8100520F00300C2F81005D2F86F
:103F5000100520F44F3020F44070C2F81005200204
:103F6000D2F810E500F47C5040EA0C4040EA0E0024
:103F700041F0200123F81710C2F81005CDE7D5E96C
:103F800000672046FFF73AFF002ECFD0104DD5E94D
:103F90000023964201D19F4218D011480DF10F0124
:103FA000FFF70EFE0D4B9842C1D19DF80F2045F84A
:103FB000326005EBC20308345F6035F8143043EA21
:103FC000422343F4807325F81430AFE70022EEE774
:103FD000900000200400AD0B006000400000AD0B1D
:103FE00004010020F0B5044685B0154619B3334EE0
:103FF00000F1080736F81720930703D4FFF7D6FE21
:10400000002858D112F01C0F02D04B78012B52D04F
:1040100001238DF80F300023CDE900134A1C8B1CBF
:1040200020460DF10F0102F05EFD36F8173043F027
:10403000030326F8173015B9214805B0F0BD1F4E0F
:1040400004F1080736F81700830734D595F800C047
:104050006146890020F0200001F18041C00401F593
:10406000C041C00C26F817000023C1F810356A784B
:10407000002AE1D0D1F81035AD7823F4991323F458
:10408000F853C1F81035D1F810E5230203F47C533E
:10409000120402F4403243EA0E0313432A0502F4E9
:1040A000801240EA4C30134340F0200026F81700FD
:1040B000C1F81035C0E70348BFE700BF90000020FB
:1040C0000000AD0B0400AD0B014BC3E902017047CA
:1040D0009000002008B50246FFF768FE38B1054B96
:1040E0000548083233F812305B0B0B7008BD0348EB
:1040F000FCE700BF900000200000AD0B0400AD0BFA
:1041000038B50F4C94F87850BDB96022294604F1B7
:10411000100002F0C2FA0620FEF75EF8094B0A48CA
:10412000C3F87C51D3F87C214FF00042C3F804233C
:10413000012384F87830636738BD0448FCE700BF8A
:1041400090000020006000400000AD0B0500AD0BAA
:10415000034B93F87800003818BF0120704700BF68
:104160009000002001460148FFF74ABD00010020F1
:1041700001460148FFF724BD0001002037B5044681
:10418000FFF714FE04F108021E4B33F81230E8B1B9
:1041900013F002051AD15B0B9A0002F1804000F582
:1041A000C24002F1804202F5C04205600068D2F8C8
:1041B000100540F00100C2F8100529B1012202FAF1
:1041C00003F3114AC2F8043303B030BDC3F38203D2
:1041D000042B12D0052B12D001A80194FFF7D8FDB3
:1041E000019BD0F81015D94001F0010102312046A1
:1041F00003B0BDE8304002F0BFBC0321F7E7022165
:10420000F5E700BF900000200060004008B50246BE
:10421000FFF7CCFDC0B102F108010E4B33F81130AD
:10422000990711D45B0B01229A409B000A4903F1C4
:10423000804303F5C043C1F80823D3F8102522F0CA
:104240000302C3F8102508BDBDE808400021104650
:1042500002F092BC900000200060004013B50E4BAD
:1042600000F10802044633F81230DB0711D5FFF7DE
:10427000CDFF2046FFF7ECFD01A80194FFF788FD74
:10428000019B03F5E073022240F82320034802B0AB
:1042900010BD0348FBE700BF900000200000AD0BFD
:1042A0000400AD0B2DE9F04F684B694869490026C1
:1042B00087B0012234461D6835B1D0F80453154249
:1042C0001EBF1C601D68164304338B424FEA420236
:1042D000F1D1DFF87C91D9F87C31002B00F0998086
:1042E0004FF0A043D3F820250492C3F82025D3F83B
:1042F00020280592C3F820284FF000080DF1100A7D
:104300004FEA481300934FF0010B49E0009B524ADB
:1043100094FAA4F4B4FA84F41C44E00804F1080309
:10432000039432F813701AF8003004F007020BFA05
:1043300002F223EA02030AF8003003A8FFF728FD7F
:10434000039B03F5E073B90850F82330C7F38205E7
:104350004A072F46C3F301432CD520463946DDB228
:10436000FFF72EFD03A80394FFF712FD039B03F54F
:10437000E07350F82330C3F301439D4207D100217D
:10438000204602F0F9FB2946204602F0F5FB03A87F
:104390000394FFF7FDFC039B0BFA03F3C0F82035F1
:1043A0005AF82840002CB1D1B8F1000F1DD14FF0C0
:1043B0000108A5E7022B0CD10321204602F0DCFB0B
:1043C00005F00503012BE2D139462046FFF7F8FC42
:1043D000DDE702212046019302F0CEFB032DF3D04E
:1043E000019B032BD3D1022DEDE74FF0A042C9F87A
:1043F0007C41D9F87C311949D2F820350493C2F8B0
:104400002035D1F8202505921343C1F820257FF4EB
:1044100073AF012416B907B0BDE8F08F96FAA6F382
:10442000B3FA83F304FA03F29B0003F1804303F52C
:10443000C04326EA0206D3F81005D3F81015C0F3DE
:104440000520C1F30141FFF7BBFCE3E70061004039
:1044500000600040206100409000002000030050F8
:1044600001460148FFF7ACBB0C01002013B53B4BE4
:1044700001930023C0F80431D0F80421C0F824319E
:10448000D0F82421C0F81C31D0F81C21C0F8083124
:10449000D0F80821C0F800324B6381F82F30012397
:1044A000036291F82D209A4218BF83604B6B8A6A91
:1044B000934204460ED24A6AD35CC0F81C350B689E
:1044C00003B340F286238B608B682548C4F804331D
:1044D00002B010BD91F82C3013B10123C361EEE797
:1044E0000B6A13F0400F4FF0010316BFC361436125
:1044F00081F82D30E3E7204602F04DFB28B1019B07
:10450000013B0193019B002BF5DC91F82F305BB947
:104510001348019B002BDBDC0023C4F80035052386
:104520001048C4F80035D3E7D4F8C434C4F8C43410
:104530008BB10D4A0B4813F0010F18BF104613F052
:10454000020F02F1010218BF104613F0040F074BCF
:1045500018BF1846DDE70348DBE700BFA08601006F
:104560000000AD0B0100AD0B0000AE0B0200AE0B66
:1045700013B5334B01930023C0F80431D0F8042164
:10458000C0F82431D0F82421C0F81C31D0F81C2107
:10459000C0F80831D0F808214B6381F82F308B6ABE
:1045A000012B044617D10B6A5B0614D40223C4F80E
:1045B00000320123236291F82D20022A18BF2360C4
:1045C0000B688BB140F286238B608B681D48C4F862
:1045D000043302B010BD0123E9E7204602F0DBFA04
:1045E00028B1019B013B0193019B002BF5DC91F865
:1045F0002F305BB91348019B002BEADC0023C4F881
:10460000003505231048C4F80035E2E7D4F8C43477
:10461000C4F8C4348BB10D4A0B4813F0010F18BF16
:10462000104613F0020F02F1010218BF104613F0FA
:10463000040F074B18BF1846DDE70348DBE700BF50
:10464000A08601000000AD0B0100AD0B0000AE0B19
:104650000200AE0B2DE9F04107792B4D4FF03C0ED7
:104660000EFB07FE05EB0E0494F82E60002E49D1D8
:10467000D0F800C045F80E20A660636084F82D6075
:1046800084F8316084F830604B7B84F838308B7B61
:1046900084F83930E3B90C681C4B04F01F06640938
:1046A000012C08BF984606F5E07418BF4FF0A048EB
:1046B00040F20C6E48F824E04C6804F01F066409D0
:1046C000012C18BF4FF0A04306F5E07443F824E036
:1046D000CB7B2BB9D1E90043CCF80845CCF80C359D
:1046E0008B68CCF8243522B1006840F30730FDF721
:1046F00073FD3C2303FB07550548012385F82E3045
:10470000BDE8F0810348FBE7EC08002000030050FF
:104710000000AD0B0500AD0B036802790521C3F85D
:104720000015044B3C2101FB0233022283F82E20AA
:10473000704700BFEC08002003680B4A0179C3F8FA
:104740000823D3F8002222F00302C3F8002200223B
:10475000C3F80025054B3C2000FB0133012183F801
:104760002E1083F83020704786420400EC080020A9
:104770002DE9F047314F0479D0F800903C2303FB3A
:1047800004730D4693F82D30012B944604D10B7819
:10479000012B06D12A4811E0022B02D10B78012B04
:1047A000F8D13C26274BC9F8083306FB047696F867
:1047B00030302BB1B3682448C9F80433BDE8F08722
:1047C0008CF00403C3F3800386F83030C6F820C0B1
:1047D000A846B8E80F0006F10C0EAEE80F00D8F8B6
:1047E0000030CEF800306B68B362EB6873626B78B0
:1047F000C9F888352B78C4EB041A012B07EB8A0A19
:1048000017D09BB9CCF3401C3C2303FB04735146E7
:1048100083F82CC04846FFF729FE3C235C433A1935
:104820003B59002BCAD182F83030C7E74FF0010C5A
:10483000EAE751464846FFF79BFEEEE7EC0800200A
:104840000500AD0B864204000B00AD0BF0B5324CF9
:10485000324887B0214602F09EF9002859D194F8D9
:104860002F70FFB9227B931E012B1BD8606AA369AE
:10487000984217D1E36963626369A362236A274898
:1048800084F82D70C3F34013032A84F82C3004D12C
:1048900007B0BDE8F040FFF7E9BD07B0BDE8F04064
:1048A000FFF766BE1E4E0FCE01AD0FC533682B60FD
:1048B00047B31A4AD2F8C434C2F8C43413F0020120
:1048C00006D001238DF80030002384F8303007E053
:1048D00013F0040209D002238DF8003084F8301060
:1048E000D4E900316846984713E013F0010305D07E
:1048F00003238DF8003084F83020F1E704228DF88E
:104900000020E2E7236A8DF800705B0784F83070BE
:10491000E6D507B0F0BD00BFEC0800200030004035
:10492000F8080020036803F01F025B09012B0260F6
:10493000024818BF4FF0A040704700BF000300506E
:10494000F7B5064602F0BFF9084602F0BCF901A827
:104950000196FFF7E7FF019B03F5E0730C4640F279
:104960000D6140F8231001A80194FFF7DBFF019BC4
:1049700003F5E073092540F82310042002F066F8DF
:10498000012701A80194FFF7CDFF019AD0F8103557
:10499000D340DB0715D401A80196FFF7C3FF019BA5
:1049A00007FA03F3C0F80C35042002F04FF8304644
:1049B00002F089F9013D042002F048F815F0FF05E6
:1049C000DFD101A80194FFF7ADFF019A01239340C5
:1049D000C0F80C35042002F039F8204602F073F9D3
:1049E000042002F033F801A80194FFF79BFF019A1D
:1049F000D0F810350348D34003F00103C01A03B0C8
:104A0000F0BD00BF0100AD0B10B5144C144A1549A0
:104A1000032323616361144BA261E3614FF480635C
:104A200023620023A3626362E36222660F4A626626
:104A30001022A266E01D2367E366636701F008FEAB
:104A4000BFF35F8F0A49204601F002FEBFF35F8F7C
:104A50002023A371BFF35F8F10BD00BF2809002082
:104A60002B77000034770000FD0B0020ED0B0020B9
:104A7000387700000F4B70B553F82040013053F8E1
:104A80002060A64200D870BDD4E90035284698477A
:104A90006DB138B10028B8BF4042EB68FF28A8BF0D
:104AA000FF201870EA68537843F00103537008340C
:104AB000E7E700BFA474000008B50A4B01220320F9
:104AC0001A70FFF7D7FF00F04DFF0420FFF7D2FF69
:104AD00000F030F9FCF7D8F8034A137B23F0010308
:104AE000137308BDFD0F00207802002008B50348AD
:104AF000034A0021121A02F021F908BDD801002052
:104B00000010002070B5002386B00122CDE90423F7
:104B1000134E144D01930F22CDE90232124918238E
:104B200003FB005506EBC01604464FF4C07000FBB3
:104B300004110E4B00954FF4A072304600F0C8F8F7
:104B4000737B0B4AEE6023F0040373734FF404632A
:104B500004FB033313442C756B6006B070BD00BFBB
:104B6000F8010020D009002040180020ED4D000081
:104B70000010002080B50020A6B0FFF77BFF2D4B72
:104B800083F308882C4D2D4E6B692D4F43F4007331
:104B90006B610024E02385F82230EC772C766C766C
:104BA000AC7685F820406B6A43F4E0236B6285F8AD
:104BB0002340FDF723FDFDF7EFFA4FF0FF33AB6223
:104BC000EB62FDF755FEFDF7BBFD40F20113ADF8BA
:104BD000243006ABB360CDE91F44229402F087F87D
:104BE0000120FFF747FF0220164DFFF743FF00F0BB
:104BF00051FC154BF5610593012314490094CDE94F
:104C000003434FF480623B46CDE90144284600F05F
:104C10005FF86A7B064622F0040228466A7302F0B7
:104C200056F92046FFF76EFF3A4631462846FDF713
:104C3000ADFB00BF4018002000ED00E0D0090020CF
:104C4000B94A0000780200203F770000C019002018
:104C500038B5064C064D0020AC4200D338BD204686
:104C600002F070F80028F9DB1C34F5E7840100201D
:104C70008401002073B50C464FF02005EFF311813D
:104C800085F31288BFF36F8F45695DB125602B688E
:104C90004361836901338361002081F31188BFF38D
:104CA0006F8F11E052EA030603D125606FF00B000D
:104CB000F3E7CDE900230246083000F0F5FA18B911
:104CC000024B9B685B69236002B070BDD009002075
:104CD0002DE9FF410E9E0673042646730D9E8673D2
:104CE00000F158050F46D61DC0E916550C9A00254F
:104CF00026F007064037C0E90655C0E919768560F9
:104D0000C573C56606F1400802920B9A0192884469
:104D10000A9A009242460446FDF706FB044B65657D
:104D20009B6803B11B6F2367404604B0BDE8F08168
:104D3000D00900202DE9F043294C2A4D87B02646A2
:104D4000AE4204F130040FD300F074FB244CDFF8C2
:104D500098904FF4004640F2E737AC4220D307B0BA
:104D6000BDE8F04300F07ABB54F8043C059354F8D6
:104D7000103C049354F8143C039354F8183C0293E9
:104D800054F81C3C019354F8203C009354E90A2346
:104D900054E90C01FFF79CFF54F8303C5E65CEE708
:104DA000636A5A1C0DD023EAE37300213846C3FB23
:104DB000060151EAC333D4F8008004D1404600F024
:104DC000E9FA3034C9E74FF47A720023FBF7B2FDF9
:104DD00002460B4608F11800494600F0D1FCF0E706
:104DE00068720000687200003B6E000008B50B4C52
:104DF0000B4D4FF02002EFF3118382F31288BFF3C3
:104E00006F8F02F0BCF82B78A06113B9FDF7CAF9D7
:104E1000EFE7FDF707F80028EBD1F7E7D00900200E
:104E2000FD0F00202DE9F341044617461E464FF0C2
:104E30002003EFF3118883F31288BFF36F8FC368E9
:104E4000334A7BB180689168884219D057EA0603DB
:104E500018D188F31188BFF36F8F6FF00F0002B085
:104E6000BDE8F081916891F90E1021610133E36092
:104E70009368A36088F31188BFF36F8F0020EEE77B
:104E80002169F2E791F90E1090F90E309942A8BF0E
:104E900019466FF07E029142B8BF11468B422EDD5B
:104EA00001F0AAFF0546CDE900761A4822464146A0
:104EB00000F0FAF90028E1D04FF02003EFF311865B
:104EC00083F31288BFF36F8FA068D0B12368216984
:104ED0009C420AD04BB193F90E309942A8BF1946B3
:104EE0006FF07E039942B8BF194601F085FF40B1CB
:104EF0000848314600F03CFA6FF00A00AFE70025A1
:104F0000D1E7002DF4D186F31188BFF36F8FF3E75B
:104F1000D0090020FE0F002038B5836804466BB32B
:104F2000194A926893422CD1C368012B03D9013BE3
:104F3000C360002038BD4FF02003EFF3118583F3E9
:104F40001288BFF36F8F0169806801F055FF20461A
:104F500001F0CDFFA06058B190F90E20226100222F
:104F6000826701F0B4FF0948294600F001FAE0E742
:104F7000E06085F31188BFF36F8FDAE76FF01500FB
:104F8000D8E74FF0FF30D5E7D0090020FE0F002012
:104F900038B504464FF02003EFF3118583F31288F0
:104FA000BFF36F8F01F0A3FF48B10022826701F0C9
:104FB0008EFF29460548BDE8384000F0D9B9D4E94C
:104FC00002329A4218BF0133A360F2E7FE0F0020BD
:104FD00013B54FF02004EFF3118184F31288BFF36F
:104FE0006F8F846844B1013C846081F31188BFF302
:104FF0006F8F002002B010BD52EA030406D181F386
:105000001188BFF36F8F6FF00F00F3E7CDE9002336
:105010000246024800F048F9ECE700BFFE0F00200E
:1050200038B5074D2C6854B1FEF708FC054B044415
:105030001C6128680021BDE8384001F0B0BF38BDD0
:10504000000A0020D009002038B50D4D2B4653F83A
:10505000204F9C4200D004B9EC68AB6838B95A7B49
:10506000D20604D1A26912B9DA897F2A05D89C42F6
:1050700002D02046FFF7D4FF2346EB6138BD00BFC6
:10508000D009002070B590F90D20437B002A01461D
:1050900004DA03F07F03437301F0BDFE4B7B154A36
:1050A00063F07F0310464B7350F8203F546A8342ED
:1050B00008BF002323B9C1E90004216051620CE05C
:1050C00091F90E5093F90E60B5420ED0AE420CDD50
:1050D0005868C1E90030016059609068431A58422D
:1050E000BDE870405841FFF7AFBF9C42E3D01B685A
:1050F000E0E700BFD009002070B490F90D30427B8A
:10510000002B29DBD30627D183692BBB134962F01F
:105110007F0242730A4652F8204F944218BF23463A
:105120004C6A23B9C0E90024206048620CE090F981
:105130000E5093F90E60B5420AD0AE4208DD5A68AF
:10514000C0E900321060586070BC0020FFF77CBFDF
:10515000A342E7D01B68E4E770BC7047D009002089
:1051600008B590F90D20437B002A014604DA03F0CC
:105170007F03437301F04FFE044B9868431A584273
:105180005841BDE80840FFF75FBF00BFD0090020CD
:1051900070B515461C46064601F071FEB4F1FF3F9E
:1051A00008BFB5F1FF3F08D02A46234606F1180094
:1051B0000249BDE8704000F0E3BA70BD3B6E0000EC
:1051C000F8B504460D464FF02003EFF3118783F343
:1051D0001288BFF36F8F00264FF4004C40F2E73087
:1051E00031464FF47A720023E4FB0C01FBF7A2FB7B
:1051F000B44202DD0228B8BF0220074A074B106004
:10520000074A98681E611560FFF70AFF87F3118847
:10521000BFF36F8FF8BD00BF000A0020D009002047
:10522000FC09002038B54FF02003EFF3118583F31C
:105230001288BFF36F8F174B174A9C6811688C4216
:1052400007D12046FFF7ECFE85F31188BFF36F8F7F
:1052500038BD00211160114A1268C2B1E2897F2A6B
:1052600015D8627BD20612D10D4A94F90E1012683D
:1052700091420CDB0B4A944209D01A69824203DC4A
:105280002046FFF7FFFEDCE7121A1A61DCE7002276
:10529000FBE700BFD0090020F8090020000A002029
:1052A000FC090020F801002070B50C480C4D866800
:1052B0002E600C461146DDE904234FF02006EFF383
:1052C000118586F31288BFF36F8F8068FFF760FF48
:1052D0002046BDE87040FCF7D3BF00BFD0090020D6
:1052E000F8090020F8B504464FF02003EFF31186CB
:1052F00083F31288BFF36F8F437BDA0649B219D16B
:105300008569BDB903F07F03437301F084FD437BDE
:10531000164A817363F07F034373134653F8200FDB
:10532000984218BF0546506A5DB9C4E90030046070
:10533000546211E0A173002086F31188BFF36F8FD0
:10534000F8BD95F90E70B9420BD08F4209DD6B683C
:10535000C4E900531C606C600120FFF775FE01205A
:10536000EAE7A842E1D02D68DEE700BFD0090020BF
:1053700049B9EFF3058030B9054BDA699B689A4269
:1053800001D0FCF77DBF81F31188BFF36F8F7047A9
:10539000D009002010B54FF02002EFF3118482F302
:1053A0001288BFF36F8F427B510704D484F31188B6
:1053B000BFF36F8F10BD22F004024273FFF79CFE13
:1053C00021460248BDE81040FFF7D2BFFE0F002083
:1053D00070B50446183001F0BCFD4FF02003EFF328
:1053E000118683F31288BFF36F8F94F90D20637BCE
:1053F000002A05DA03F07F036373204601F00BFDFA
:105400000B4D637BA86843F010036373031B584282
:105410005841FFF719FE86F31188BFF36F8FAB6811
:10542000A34203D1BDE8704001F089BD70BD00BF4B
:10543000D00900204FF02003EFF3118183F312888D
:10544000BFF36F8F044B9A68D37B013BD37381F317
:105450001188BFF36F8F7047D009002010B54FF04F
:105460002003EFF3118483F31288BFF36F8F084B8F
:105470009A68D37B0133D3730020FFF7E5FD84F3F3
:105480001188BFF36F8FBDE8104001F058BD00BF19
:10549000D0090020044B002103F12002C3E90822B7
:1054A0000846FFF78DBE00BFD0090020F8B54FF0C9
:1054B0002003EFF3118583F31288BFF36F8F19492F
:1054C0008868437B03F07F03437301F0A4FC8B687F
:1054D0005A7B084662F07F025A7350F8202F4C6ABC
:1054E000824208BF002222B9C3E9000423604B6254
:1054F0000CE093F90E6092F90E70BE420ED0B742E6
:105500000CDD5168C3E900210B6053600120FFF7F7
:105510009BFD2846BDE8F840FCF7B2BEA242E3D0AE
:105520001268E0E7D009002050EA01032DE9F041BC
:1055300005460E4603D1FFF7B9FF00202CE0831C7F
:1055400071F1FF332ADB01F046FD2C184FF02003E8
:10555000EFF3118883F31288BFF36F8F114F124B53
:10556000B8681860FFF7FCFDB86810492A46334652
:10557000183000F005F9BA68537B43F010035373F9
:105580004046FCF77DFE01F026FD201A63EB030385
:10559000012873F10003D0DBBDE8F0816FF0010456
:1055A000241AD3E7D0090020F80900203B6E000040
:1055B000B1F1FF3F08BFB0F1FF3F08B506D1084B7E
:1055C0009868FFF705FF4FF0FF3008BDFFF7ACFF0D
:1055D0004FF47A7380FB0303C00B40EA4340F4E7C7
:1055E000D0090020014B9868704700BFD009002007
:1055F0002DE9F04104464FF02003EFF3118683F3C9
:105600001288BFF36F8F037BD9070BD586F3118800
:10561000BFF36F8F404080F311884FF0040002DF2A
:10562000BDE8F081437B1A0704D586F31188BFF3E8
:105630006F8FF5E723F0200242F00801D20920D154
:105640004173A36813B1204601F0EDFB04F118008B
:1056500001F07FFC04F158074FF00008A56DBD4232
:1056600000D0B5B90120FFF7EFFC104B9B68A342B7
:10567000DBD1EFF30583002BD7D13046FCF700FEDA
:10568000D3E703F05F0343F00803437301F0C3FB68
:10569000D7E7284601F0C7FB05F1180001F059FCD7
:1056A000C5F878802846FFF727FDD7E7D009002006
:1056B00008B50648064A0749121A01F041FBBDE841
:1056C0000840054A0549064801F03ABB00000020A1
:1056D000D4010020787700000000000078770000F7
:1056E00000000020034B1B680BB9FEF7A7B8002091
:1056F000704700BF040A002010B5114B1C689C4283
:105700000AD1FFF7EFFF6FF000400E4B1B6913B19A
:105710009842A8BF184610BDFFF7E4FF002CF2D056
:10572000D4E904321B1A62EBE072B3F1004F72F15C
:105730000001E8DA002AACBF18460020E5E700BF08
:1057400010010020D009002030B570B10B4B5B6810
:1057500098420AD0036843B1D3E90421D0E9044553
:10576000121941EB0501C3E90421D0E900321360AD
:105770005A600023C0E9003330BD00BF1001002093
:10578000B3F1FF3F08BFB2F1FF3FF8B504461D4635
:10579000164661D081604FF02003EFF3118783F349
:1057A0001288BFF36F8F013275F1FF3324DA30496D
:1057B000D1E900206FF001039B1A4FF0FF3262EB3A
:1057C00000009E1B60EB0500012E70F1000301DA62
:1057D00001260020C4E90460264ED6F800C0756892
:1057E000B44508BF4FF0000CBCF1000F0DD1C4E967
:1057F00000652C6074601CE0FFF774FF013645F112
:105800000005361845EBE070E4E7DCE90420D4E954
:105810000431934271EB000E1FDAD21ADCF8043027
:1058200060EB0100CCE90420C4E900C31C60CCF8A3
:1058300004403368B3420BD09C4209D1FFF75CFFB0
:1058400018B10D4B1B69834202D00021FDF7C4FF44
:1058500087F31188BFF36F8FF8BD9B1A61EB0001CE
:10586000AC45C4E90431C2D0DCF800C0BCE700BFDD
:10587000F802002010010020D00900202DE9F84393
:105880000446FFF7CFFC4FF02003EFF3118683F3BC
:105890001288BFF36F8F234FDFF88C80D8F8000099
:1058A000224A3C604045D2E9003E4FEAE4710BD009
:1058B00050B1D0E9045CAC4271EB0C0916DA2D1B37
:1058C0006CEB010CC0E9045CE3184EEB0101002411
:1058D000C2E900313C60FFF70FFF2146FDF77CFF76
:1058E00086F31188BFF36F8FBDE8F883EB184EEB9A
:1058F000E571C2E9003100220023C0E90423FFF76B
:1059000023FF86F31188BFF36F8F836898474FF0AA
:105910002003EFF3118683F31288BFF36F8F3C6887
:10592000641BBBE7040A002010010020F8020020DD
:1059300010B54FF02003EFF3118483F31288BFF307
:105940006F8FFFF7CFFE064A0346D2E90001181811
:1059500041EBE37184F31188BFF36F8F10BD00BF7B
:10596000F8020020014800F0E1BC00BF47770000CA
:1059700010B50A4C23681BB101232360002010BD21
:1059800000F0E6F80028F7D00138062803D8044BC9
:1059900053F8200010BD034810BD00BF080A0020C6
:1059A000BC740000FE8FFFFFBFF34F8F0549064B0D
:1059B000CA6802F4E0621343CB60BFF34F8F00BFAD
:1059C000FDE700BF00ED00E00400FA0510B4094B4C
:1059D00009490A4C4FF0FE32C3F800244968C3F865
:1059E0000424C3F80824C3F80C240023C4F80035A9
:1059F00010BC084700B002501801002000A002505F
:105A0000D0E90012014BC3E90012704718010020D1
:105A100010B5044650B1636813F0685F05D0064ABC
:105A2000934202D000232360626010BD034B044800
:105A30005B689847EFE700BF2C5F5CA91801002066
:105A4000D8740000C8B143680D4A934213D013F0D4
:105A5000685F0ED0012350E8002F194640E8001C73
:105A60009CF0000FF7D1012AF5D0BFF35F8F002023
:105A7000704704487047044870476FF4E04070472F
:105A80002C5F5CA9E98FFFFFEA8FFFFF80B14368BD
:105A9000094A93420AD013F0685F05D0BFF35F8FC5
:105AA0000023036018467047044870470448704755
:105AB0006FF4E040704700BF2C5F5CA9E98FFFFFE7
:105AC000EA8FFFFF10B5044620B1044B636000224B
:105AD000226010BD0248FFF779FFF6E73A00003A6E
